:100000000C9446000C9465000C9465000C946500FB
:100010000C9465000C9465000C9465000C946500CC
:100020000C9465000C9465000C9465000C946500BC
:100030000C9465000C9465000C9465000C946500AC
:100040000C9465000C9465000C9465000C9465009C
:100050000C9465000C9465000C9465000C9465008C
:100060000C9465000C9465000C9465000C9465007C
:100070000C9465000C9465000C9465000C9465006C
:100080000C9465000C9465000C94650011241FBE4F
:10009000CFEFD0E1DEBFCDBF11E0A0E0B1E0E0EBFB
:1000A000F4E000E00BBF02C007900D92A031B10751
:1000B000D9F711E0A0E1B1E001C01D92A231B10772
:1000C000E1F70E9475000C9456020C94000020E0A9
:1000D00030E040EA5FE005C0FA013197F1F72F5FA9
:1000E0003F4F28173907C4F30895EF92FF921F93EB
:1000F000DF93CF93CDB7DEB760970FB6F894DEBF2E
:100100000FBECDBFDE011196E0E0F1E080E101908D
:100110000D928150E1F70E94BF010E94D0000E9421
:1001200000020E9434017E010894E11CF11C0E942F
:100130000B02019771F40E9434010BC088EE93E02A
:100140000E94670080E090E00E942402182F88300F
:1001500061F40E940B02892B31F480E090E00E9450
:100160002402089759F3183059F01C9AE12FF0E057
:10017000EE0FFF1FEE0DFF1D808191810E94130184
:100180008AEF90E00E9467000E94D60184EF91E020
:100190000E9467000E94C8011C980E943401C7CFCA
:1001A00082B18C6F82B983B1876283B983B183B91D
:1001B0000895CF93DF93813011F41C9A06C08823F1
:1001C00011F081E002C01C988FEF1D98E0911001A2
:1001D000F091110140E050E0A82FB0E0C0EADFE06C
:1001E00017C0EA0FFB1F1B9A20E0CE010197F1F721
:1001F0002F5F2233D1F71B9820E0CE010197F1F752
:100200002F5F2233D1F76417750728F04F5F5F4FD8
:100210004617570730F3F0931101E09310011D9A30
:10022000DF91CF9108951D981C9A40911001509133
:1002300011019A0160EA7FE00AC01B9AFB01319725
:10024000F1F71B98FB013197F1F72F5F3F4F28170C
:10025000390799F7241B350B240F351F30931101F3
:10026000209310011D9A0895CF93DF931C98C0EA44
:10027000DFE01D981C9820E030E01B9ACE0101972A
:10028000F1F71B98CE010197F1F72F5F3F4F2A300E
:10029000310599F70E940B02882359F71D9A109295
:1002A000110110921001DF91CF9108950F931F93C8
:1002B000CF93DF930E940B020197F9F01C981D98D1
:1002C000C0EADFE000E41CE91C9820E01B9ACE01A4
:1002D0000197F1F71B98CE010197F1F72F5F2436B4
:1002E000A9F70E940B02019779F7C8010197F1F76E
:1002F0000E940B02019741F71D9ADF91CF911F9148
:100300000F9108950F931F93CF93DF931C9A1D981D
:1003100000E21EE4C0E4DCE91C9A20E01B9AC8015C
:100320000197F1F71B98C8010197F1F72F5F2A3069
:10033000A9F70E940B02019779F7CE010197F1F717
:100340000E941F02019741F7CE010197F1F70E9429
:100350001F02019709F7CE010197F1F70E941F02D2
:100360000197D1F6CE010197F1F70E941F02019784
:1003700099F61D9ADF91CF911F910F9108958AB33D
:100380008FEF8ABB8BB38A6A8BBB8BB38BBB089511
:10039000DE9ADD9820E040E45CE9CA010197F1F7BC
:1003A0002F5F2436D1F7DD9ADE980895DC9ADF9826
:1003B00020E040E45CE9CA010197F1F72F5F2436A1
:1003C000D1F7DF9ADC980895DA9AD99820E040E4D2
:1003D0005CE9CA010197F1F72F5F2436D1F7D99A6A
:1003E000DA980895D89ADB9820E040E45CE9CA01E5
:1003F0000197F1F72F5F2436D1F7DB9AD89808954B
:1004000010926100E2E6F0E080818360808317BA99
:100410008FEF88BB089540E25EE420B12170CA01ED
:100420000197F1F780B1FA013197F1F790B191702E
:100430008170281791F7291781F7822F089580B1CD
:10044000869580958170089526B32170281711F044
:1004500080E0089596B39270921711F081E00895AC
:1004600086B38470891711F082E0089596B398706E
:10047000981711F083E0089586B38071891711F001
:1004800084E0089596B39072981711F085E008956E
:1004900026B32074291711F086E0089586B380787A
:1004A000821711F488E0089587E00895F894FFCF4B
:1004B000A9010D026C02BC020C037003C0031004FE
:00000001FF
